{
  "contractName": "Code",
  "abi": [
    {
      "anonymous": false,
      "inputs": [
        {
          "indexed": true,
          "internalType": "address",
          "name": "previousOwner",
          "type": "address"
        },
        {
          "indexed": true,
          "internalType": "address",
          "name": "newOwner",
          "type": "address"
        }
      ],
      "name": "OwnershipTransferred",
      "type": "event"
    },
    {
      "inputs": [],
      "name": "Ownable",
      "outputs": [],
      "stateMutability": "nonpayable",
      "type": "function"
    },
    {
      "inputs": [
        {
          "internalType": "bytes32",
          "name": "",
          "type": "bytes32"
        }
      ],
      "name": "code",
      "outputs": [
        {
          "internalType": "address",
          "name": "account",
          "type": "address"
        },
        {
          "internalType": "uint256",
          "name": "createDate",
          "type": "uint256"
        },
        {
          "internalType": "bool",
          "name": "enable",
          "type": "bool"
        }
      ],
      "stateMutability": "view",
      "type": "function",
      "constant": true
    },
    {
      "inputs": [],
      "name": "owner",
      "outputs": [
        {
          "internalType": "address",
          "name": "",
          "type": "address"
        }
      ],
      "stateMutability": "view",
      "type": "function",
      "constant": true
    },
    {
      "inputs": [
        {
          "internalType": "address",
          "name": "newOwner",
          "type": "address"
        }
      ],
      "name": "transferOwnership",
      "outputs": [],
      "stateMutability": "nonpayable",
      "type": "function"
    },
    {
      "inputs": [
        {
          "internalType": "address",
          "name": "account",
          "type": "address"
        }
      ],
      "name": "generateCode",
      "outputs": [
        {
          "internalType": "bytes32",
          "name": "",
          "type": "bytes32"
        }
      ],
      "stateMutability": "view",
      "type": "function",
      "constant": true
    },
    {
      "inputs": [
        {
          "internalType": "bytes32",
          "name": "hash",
          "type": "bytes32"
        },
        {
          "internalType": "address",
          "name": "account",
          "type": "address"
        }
      ],
      "name": "addCode",
      "outputs": [],
      "stateMutability": "nonpayable",
      "type": "function"
    },
    {
      "inputs": [
        {
          "internalType": "bytes32",
          "name": "hashh",
          "type": "bytes32"
        }
      ],
      "name": "verifyDate",
      "outputs": [],
      "stateMutability": "nonpayable",
      "type": "function"
    }
  ],
  "bytecode": "0x608060405234801561001057600080fd5b506107f8806100206000396000f3fe608060405234801561001057600080fd5b506004361061007d5760003560e01c80636b7cf9a41161005b5780636b7cf9a4146101005780638afc36051461011c5780638da5cb5b14610126578063f2fde38b146101445761007d565b80631299a2e21461008257806328f17dd0146100b2578063519af693146100e4575b600080fd5b61009c60048036038101906100979190610519565b610160565b6040516100a9919061055f565b60405180910390f35b6100cc60048036038101906100c791906105a6565b610197565b6040516100db93929190610616565b60405180910390f35b6100fe60048036038101906100f9919061064d565b6101ee565b005b61011a600480360381019061011591906105a6565b6102ad565b005b610124610302565b005b61012e610344565b60405161013b919061068d565b60405180910390f35b61015e60048036038101906101599190610519565b610368565b005b6000808242604051602001610176929190610711565b60405160208183030381529060405280519060200120905080915050919050565b60016020528060005260406000206000915090508060000160009054906101000a900473ffffffffffffffffffffffffffffffffffffffff16908060010154908060020160009054906101000a900460ff16905083565b60405180606001604052808273ffffffffffffffffffffffffffffffffffffffff168152602001428152602001600115158152506001600084815260200190815260200160002060008201518160000160006101000a81548173ffffffffffffffffffffffffffffffffffffffff021916908373ffffffffffffffffffffffffffffffffffffffff1602179055506020820151816001015560408201518160020160006101000a81548160ff0219169083151502179055509050505050565b60b460016000838152602001908152602001600020600101546102d0919061076c565b42106001600083815260200190815260200160002060020160006101000a81548160ff02191690831515021790555050565b336000806101000a81548173ffffffffffffffffffffffffffffffffffffffff021916908373ffffffffffffffffffffffffffffffffffffffff160217905550565b60008054906101000a900473ffffffffffffffffffffffffffffffffffffffff1681565b60008054906101000a900473ffffffffffffffffffffffffffffffffffffffff1673ffffffffffffffffffffffffffffffffffffffff163373ffffffffffffffffffffffffffffffffffffffff16146103c057600080fd5b600073ffffffffffffffffffffffffffffffffffffffff168173ffffffffffffffffffffffffffffffffffffffff16036103f957600080fd5b8073ffffffffffffffffffffffffffffffffffffffff1660008054906101000a900473ffffffffffffffffffffffffffffffffffffffff1673ffffffffffffffffffffffffffffffffffffffff167f8be0079c531659141344cd1fd0a4f28419497f9722a3daafe3b4186f6b6457e060405160405180910390a3806000806101000a81548173ffffffffffffffffffffffffffffffffffffffff021916908373ffffffffffffffffffffffffffffffffffffffff16021790555050565b600080fd5b600073ffffffffffffffffffffffffffffffffffffffff82169050919050565b60006104e6826104bb565b9050919050565b6104f6816104db565b811461050157600080fd5b50565b600081359050610513816104ed565b92915050565b60006020828403121561052f5761052e6104b6565b5b600061053d84828501610504565b91505092915050565b6000819050919050565b61055981610546565b82525050565b60006020820190506105746000830184610550565b92915050565b61058381610546565b811461058e57600080fd5b50565b6000813590506105a08161057a565b92915050565b6000602082840312156105bc576105bb6104b6565b5b60006105ca84828501610591565b91505092915050565b6105dc816104db565b82525050565b6000819050919050565b6105f5816105e2565b82525050565b60008115159050919050565b610610816105fb565b82525050565b600060608201905061062b60008301866105d3565b61063860208301856105ec565b6106456040830184610607565b949350505050565b60008060408385031215610664576106636104b6565b5b600061067285828601610591565b925050602061068385828601610504565b9150509250929050565b60006020820190506106a260008301846105d3565b92915050565b60008160601b9050919050565b60006106c0826106a8565b9050919050565b60006106d2826106b5565b9050919050565b6106ea6106e5826104db565b6106c7565b82525050565b6000819050919050565b61070b610706826105e2565b6106f0565b82525050565b600061071d82856106d9565b60148201915061072d82846106fa565b6020820191508190509392505050565b7f4e487b7100000000000000000000000000000000000000000000000000000000600052601160045260246000fd5b6000610777826105e2565b9150610782836105e2565b9250827fffffffffffffffffffffffffffffffffffffffffffffffffffffffffffffffff038211156107b7576107b661073d565b5b82820190509291505056fea2646970667358221220ee542655791732615be2118f20839822e20d8d5276444f39e6a29eb2beb2c45c64736f6c634300080f0033",
  "immutableReferences": {},
  "source": "// SPDX-License-Identifier: MIT\r\npragma solidity >=0.4.22 <0.9.0;\r\n\r\nimport \"./ownable.sol\";\r\nimport \"./DateTime.sol\";\r\n\r\ncontract Code is ownable{\r\n    //\r\n  \r\n  struct codeInfo{\r\n    address account;//\r\n    // uint256 cIndex;//\r\n    uint256 createDate;//\r\n    bool enable;//\r\n  }\r\n  mapping(bytes32 => codeInfo) public code;\r\n\r\n  //\r\n  function generateCode(address account) public view returns(bytes32){\r\n    bytes32 hash = keccak256(abi.encodePacked(account, block.timestamp));\r\n    return hash;\r\n  }\r\n\r\n  //\r\n  function addCode(\r\n    bytes32 hash,\r\n    address account\r\n  )public{\r\n    code[hash] = codeInfo({\r\n      account: account,\r\n      createDate: block.timestamp,\r\n      enable: true\r\n    });\r\n  }\r\n\r\n  //\r\n  function verifyDate(bytes32 hashh) public{\r\n    //\r\n    code[hashh].enable = block.timestamp < code[hashh].createDate + 3 minutes;\r\n  }\r\n}",
  "sourcePath": "D:\\\\finish_web3\\contracts\\Code.sol",
  "compiler": {
    "name": "solc",
    "version": "0.8.15+commit.e14f2714.Emscripten.clang"
  },
  "schemaVersion": "3.4.8",
  "updatedAt": "2022-12-08T07:09:11.439Z",
  "networkType": "ethereum",
  "devdoc": {
    "kind": "dev",
    "methods": {
      "Ownable()": {
        "details": "The Ownable constructor sets the original `owner` of the contract to the sender account."
      },
      "transferOwnership(address)": {
        "details": "Allows the current owner to transfer control of the contract to a newOwner.",
        "params": {
          "newOwner": "The address to transfer ownership to."
        }
      }
    },
    "version": 1
  },
  "userdoc": {
    "kind": "user",
    "methods": {},
    "version": 1
  }
}