{
  "contractName": "DateTime",
  "abi": [
    {
      "inputs": [
        {
          "internalType": "uint16",
          "name": "year",
          "type": "uint16"
        }
      ],
      "name": "isLeapYear",
      "outputs": [
        {
          "internalType": "bool",
          "name": "",
          "type": "bool"
        }
      ],
      "stateMutability": "pure",
      "type": "function",
      "constant": true
    },
    {
      "inputs": [
        {
          "internalType": "uint256",
          "name": "year",
          "type": "uint256"
        }
      ],
      "name": "leapYearsBefore",
      "outputs": [
        {
          "internalType": "uint256",
          "name": "",
          "type": "uint256"
        }
      ],
      "stateMutability": "pure",
      "type": "function",
      "constant": true
    },
    {
      "inputs": [
        {
          "internalType": "uint8",
          "name": "month",
          "type": "uint8"
        },
        {
          "internalType": "uint16",
          "name": "year",
          "type": "uint16"
        }
      ],
      "name": "getDaysInMonth",
      "outputs": [
        {
          "internalType": "uint8",
          "name": "",
          "type": "uint8"
        }
      ],
      "stateMutability": "pure",
      "type": "function",
      "constant": true
    },
    {
      "inputs": [
        {
          "internalType": "uint256",
          "name": "timestamp",
          "type": "uint256"
        }
      ],
      "name": "getYear",
      "outputs": [
        {
          "internalType": "uint16",
          "name": "",
          "type": "uint16"
        }
      ],
      "stateMutability": "pure",
      "type": "function",
      "constant": true
    },
    {
      "inputs": [
        {
          "internalType": "uint256",
          "name": "timestamp",
          "type": "uint256"
        }
      ],
      "name": "getMonth",
      "outputs": [
        {
          "internalType": "uint8",
          "name": "",
          "type": "uint8"
        }
      ],
      "stateMutability": "pure",
      "type": "function",
      "constant": true
    },
    {
      "inputs": [
        {
          "internalType": "uint256",
          "name": "timestamp",
          "type": "uint256"
        }
      ],
      "name": "getDay",
      "outputs": [
        {
          "internalType": "uint8",
          "name": "",
          "type": "uint8"
        }
      ],
      "stateMutability": "pure",
      "type": "function",
      "constant": true
    },
    {
      "inputs": [
        {
          "internalType": "uint256",
          "name": "timestamp",
          "type": "uint256"
        }
      ],
      "name": "getHour",
      "outputs": [
        {
          "internalType": "uint8",
          "name": "",
          "type": "uint8"
        }
      ],
      "stateMutability": "pure",
      "type": "function",
      "constant": true
    },
    {
      "inputs": [
        {
          "internalType": "uint256",
          "name": "timestamp",
          "type": "uint256"
        }
      ],
      "name": "getMinute",
      "outputs": [
        {
          "internalType": "uint8",
          "name": "",
          "type": "uint8"
        }
      ],
      "stateMutability": "pure",
      "type": "function",
      "constant": true
    },
    {
      "inputs": [
        {
          "internalType": "uint256",
          "name": "timestamp",
          "type": "uint256"
        }
      ],
      "name": "getSecond",
      "outputs": [
        {
          "internalType": "uint8",
          "name": "",
          "type": "uint8"
        }
      ],
      "stateMutability": "pure",
      "type": "function",
      "constant": true
    },
    {
      "inputs": [
        {
          "internalType": "uint256",
          "name": "timestamp",
          "type": "uint256"
        }
      ],
      "name": "getWeekday",
      "outputs": [
        {
          "internalType": "uint8",
          "name": "",
          "type": "uint8"
        }
      ],
      "stateMutability": "pure",
      "type": "function",
      "constant": true
    },
    {
      "inputs": [
        {
          "internalType": "uint16",
          "name": "year",
          "type": "uint16"
        },
        {
          "internalType": "uint8",
          "name": "month",
          "type": "uint8"
        },
        {
          "internalType": "uint8",
          "name": "day",
          "type": "uint8"
        },
        {
          "internalType": "uint8",
          "name": "hour",
          "type": "uint8"
        },
        {
          "internalType": "uint8",
          "name": "minute",
          "type": "uint8"
        }
      ],
      "name": "toTimestamp",
      "outputs": [
        {
          "internalType": "uint256",
          "name": "timestamp",
          "type": "uint256"
        }
      ],
      "stateMutability": "pure",
      "type": "function",
      "constant": true
    },
    {
      "inputs": [
        {
          "internalType": "uint16",
          "name": "year",
          "type": "uint16"
        },
        {
          "internalType": "uint8",
          "name": "month",
          "type": "uint8"
        },
        {
          "internalType": "uint8",
          "name": "day",
          "type": "uint8"
        },
        {
          "internalType": "uint8",
          "name": "hour",
          "type": "uint8"
        }
      ],
      "name": "toTimestamp",
      "outputs": [
        {
          "internalType": "uint256",
          "name": "timestamp",
          "type": "uint256"
        }
      ],
      "stateMutability": "pure",
      "type": "function",
      "constant": true
    },
    {
      "inputs": [
        {
          "internalType": "uint16",
          "name": "year",
          "type": "uint16"
        },
        {
          "internalType": "uint8",
          "name": "month",
          "type": "uint8"
        },
        {
          "internalType": "uint8",
          "name": "day",
          "type": "uint8"
        }
      ],
      "name": "toTimestamp",
      "outputs": [
        {
          "internalType": "uint256",
          "name": "timestamp",
          "type": "uint256"
        }
      ],
      "stateMutability": "pure",
      "type": "function",
      "constant": true
    },
    {
      "inputs": [
        {
          "internalType": "uint16",
          "name": "year",
          "type": "uint16"
        },
        {
          "internalType": "uint8",
          "name": "month",
          "type": "uint8"
        },
        {
          "internalType": "uint8",
          "name": "day",
          "type": "uint8"
        },
        {
          "internalType": "uint8",
          "name": "hour",
          "type": "uint8"
        },
        {
          "internalType": "uint8",
          "name": "minute",
          "type": "uint8"
        },
        {
          "internalType": "uint8",
          "name": "second",
          "type": "uint8"
        }
      ],
      "name": "toTimestamp",
      "outputs": [
        {
          "internalType": "uint256",
          "name": "timestamp",
          "type": "uint256"
        }
      ],
      "stateMutability": "pure",
      "type": "function",
      "constant": true
    }
  ],
  "bytecode": "0x6113f6610053600b82828239805160001a607314610046577f4e487b7100000000000000000000000000000000000000000000000000000000600052600060045260246000fd5b30600052607381538281f3fe73000000000000000000000000000000000000000030146080604052600436106100f45760003560e01c80639054bdec11610096578063a6f0e57711610070578063a6f0e577146102d9578063b199993714610309578063b238ad0e14610339578063fa93f88314610369576100f4565b80639054bdec1461024957806392d6631314610279578063a324ad24146102a9576100f4565b806365c72840116100d257806365c72840146101895780637f791833146101b95780638aa001fc146101e95780638c8d98a014610219576100f4565b80633e239e1a146100f95780634ac1ad781461012957806362ba968714610159575b600080fd5b610113600480360381019061010e9190610d7e565b610399565b6040516101209190610dc7565b60405180910390f35b610143600480360381019061013e9190610d7e565b6103c6565b6040516101509190610dc7565b60405180910390f35b610173600480360381019061016e9190610e48565b6103f6565b6040516101809190610ed2565b60405180910390f35b6101a3600480360381019061019e9190610d7e565b610412565b6040516101b09190610dc7565b60405180910390f35b6101d360048036038101906101ce9190610eed565b610428565b6040516101e09190610ed2565b60405180910390f35b61020360048036038101906101fe9190610d7e565b610443565b6040516102109190610dc7565b60405180910390f35b610233600480360381019061022e9190610f54565b610459565b6040516102409190610ed2565b60405180910390f35b610263600480360381019061025e9190610fa7565b610474565b6040516102709190610ed2565b60405180910390f35b610293600480360381019061028e9190610d7e565b6107df565b6040516102a09190611043565b60405180910390f35b6102c360048036038101906102be9190610d7e565b6108f6565b6040516102d09190610dc7565b60405180910390f35b6102f360048036038101906102ee919061105e565b61090c565b60405161030091906110a6565b60405180910390f35b610323600480360381019061031e9190610d7e565b61097b565b6040516103309190610ed2565b60405180910390f35b610353600480360381019061034e91906110c1565b6109cf565b6040516103609190610dc7565b60405180910390f35b610383600480360381019061037e9190610d7e565b610a9b565b6040516103909190610dc7565b60405180910390f35b60006018603c80846103ab919061115f565b6103b5919061115f565b6103bf9190611190565b9050919050565b60006007600462015180846103db919061115f565b6103e591906111c1565b6103ef9190611190565b9050919050565b600061040786868686866000610474565b905095945050505050565b600061041d82610abc565b604001519050919050565b600061043985858585600080610474565b9050949350505050565b6000603c826104529190611190565b9050919050565b600061046b8484846000806000610474565b90509392505050565b6000806107b290505b8761ffff168161ffff1610156104d8576104968161090c565b156104b2576301e28500826104ab91906111c1565b91506104c5565b6301e13380826104c291906111c1565b91505b80806104d090611217565b91505061047d565b6104e0610ccd565b601f816000600c81106104f6576104f5611241565b5b602002019060ff16908160ff16815250506105108961090c565b1561054157601d816001600c811061052b5761052a611241565b5b602002019060ff16908160ff1681525050610569565b601c816001600c811061055757610556611241565b5b602002019060ff16908160ff16815250505b601f816002600c811061057f5761057e611241565b5b602002019060ff16908160ff1681525050601e816003600c81106105a6576105a5611241565b5b602002019060ff16908160ff1681525050601f816004600c81106105cd576105cc611241565b5b602002019060ff16908160ff1681525050601e816005600c81106105f4576105f3611241565b5b602002019060ff16908160ff1681525050601f816006600c811061061b5761061a611241565b5b602002019060ff16908160ff1681525050601f816007600c811061064257610641611241565b5b602002019060ff16908160ff1681525050601e816008600c811061066957610668611241565b5b602002019060ff16908160ff1681525050601f816009600c81106106905761068f611241565b5b602002019060ff16908160ff1681525050601e81600a600c81106106b7576106b6611241565b5b602002019060ff16908160ff1681525050601f81600b600c81106106de576106dd611241565b5b602002019060ff16908160ff1681525050600191505b8760ff168261ffff16101561075c57806001836107119190611270565b61ffff16600c811061072657610725611241565b5b602002015160ff166201518061073c91906112a4565b8361074791906111c1565b9250818061075490611217565b9250506106f4565b60018761076991906112fe565b60ff166201518061077a91906112a4565b8361078591906111c1565b92508560ff16610e1061079891906112a4565b836107a391906111c1565b92508460ff16603c6107b591906112a4565b836107c091906111c1565b92508360ff16836107d191906111c1565b925050509695505050505050565b600080600090506000806301e13380856107f9919061115f565b6107b261ffff1661080a91906111c1565b915061081b6107b261ffff1661097b565b6108288361ffff1661097b565b6108329190611332565b9050806301e2850061084491906112a4565b8361084f91906111c1565b9250806107b2836108609190611270565b61ffff1661086e9190611332565b6301e1338061087d91906112a4565b8361088891906111c1565b92505b848311156108eb576108a86001836108a39190611270565b61090c565b156108c4576301e28500836108bd9190611332565b92506108d7565b6301e13380836108d49190611332565b92505b6001826108e49190611270565b915061088b565b819350505050919050565b600061090182610abc565b602001519050919050565b60008060048361091c9190611366565b61ffff161461092e5760009050610976565b600060648361093d9190611366565b61ffff161461094f5760019050610976565b60006101908361095f9190611366565b61ffff16146109715760009050610976565b600190505b919050565b600060018261098a9190611332565b91506101908261099a919061115f565b6064836109a7919061115f565b6004846109b4919061115f565b6109be9190611332565b6109c891906111c1565b9050919050565b600060018360ff1614806109e6575060038360ff16145b806109f4575060058360ff16145b80610a02575060078360ff16145b80610a10575060088360ff16145b80610a1e5750600a8360ff16145b80610a2c5750600c8360ff16145b15610a3a57601f9050610a95565b60048360ff161480610a4f575060068360ff16145b80610a5d575060098360ff16145b80610a6b5750600b8360ff16145b15610a7957601e9050610a95565b610a828261090c565b15610a9057601d9050610a95565b601c90505b92915050565b6000603c8083610aab919061115f565b610ab59190611190565b9050919050565b610ac4610cf0565b60008080610ad1856107df565b846000019061ffff16908161ffff1681525050610af36107b261ffff1661097b565b610b04856000015161ffff1661097b565b610b0e9190611332565b9150816301e28500610b2091906112a4565b83610b2b91906111c1565b9250816107b28560000151610b409190611270565b61ffff16610b4e9190611332565b6301e13380610b5d91906112a4565b83610b6891906111c1565b92506000600191505b600c8260ff1611610be857610b8a8286600001516109cf565b60ff1662015180610b9b91906112a4565b9050858482610baa91906111c1565b1115610bc75781856020019060ff16908160ff1681525050610be8565b8084610bd391906111c1565b93508180610be090611397565b925050610b71565b600191505b610bff856020015186600001516109cf565b60ff168260ff1611610c5c57858462015180610c1b91906111c1565b1115610c385781856040019060ff16908160ff1681525050610c5c565b6201518084610c4791906111c1565b93508180610c5490611397565b925050610bed565b610c6586610399565b856060019060ff16908160ff1681525050610c7f86610a9b565b856080019060ff16908160ff1681525050610c9986610443565b8560a0019060ff16908160ff1681525050610cb3866103c6565b8560c0019060ff16908160ff168152505050505050919050565b604051806101800160405280600c90602082028036833780820191505090505090565b6040518060e00160405280600061ffff168152602001600060ff168152602001600060ff168152602001600060ff168152602001600060ff168152602001600060ff168152602001600060ff1681525090565b600080fd5b6000819050919050565b610d5b81610d48565b8114610d6657600080fd5b50565b600081359050610d7881610d52565b92915050565b600060208284031215610d9457610d93610d43565b5b6000610da284828501610d69565b91505092915050565b600060ff82169050919050565b610dc181610dab565b82525050565b6000602082019050610ddc6000830184610db8565b92915050565b600061ffff82169050919050565b610df981610de2565b8114610e0457600080fd5b50565b600081359050610e1681610df0565b92915050565b610e2581610dab565b8114610e3057600080fd5b50565b600081359050610e4281610e1c565b92915050565b600080600080600060a08688031215610e6457610e63610d43565b5b6000610e7288828901610e07565b9550506020610e8388828901610e33565b9450506040610e9488828901610e33565b9350506060610ea588828901610e33565b9250506080610eb688828901610e33565b9150509295509295909350565b610ecc81610d48565b82525050565b6000602082019050610ee76000830184610ec3565b92915050565b60008060008060808587031215610f0757610f06610d43565b5b6000610f1587828801610e07565b9450506020610f2687828801610e33565b9350506040610f3787828801610e33565b9250506060610f4887828801610e33565b91505092959194509250565b600080600060608486031215610f6d57610f6c610d43565b5b6000610f7b86828701610e07565b9350506020610f8c86828701610e33565b9250506040610f9d86828701610e33565b9150509250925092565b60008060008060008060c08789031215610fc457610fc3610d43565b5b6000610fd289828a01610e07565b9650506020610fe389828a01610e33565b9550506040610ff489828a01610e33565b945050606061100589828a01610e33565b935050608061101689828a01610e33565b92505060a061102789828a01610e33565b9150509295509295509295565b61103d81610de2565b82525050565b60006020820190506110586000830184611034565b92915050565b60006020828403121561107457611073610d43565b5b600061108284828501610e07565b91505092915050565b60008115159050919050565b6110a08161108b565b82525050565b60006020820190506110bb6000830184611097565b92915050565b600080604083850312156110d8576110d7610d43565b5b60006110e685828601610e33565b92505060206110f785828601610e07565b9150509250929050565b7f4e487b7100000000000000000000000000000000000000000000000000000000600052601260045260246000fd5b7f4e487b7100000000000000000000000000000000000000000000000000000000600052601160045260246000fd5b600061116a82610d48565b915061117583610d48565b92508261118557611184611101565b5b828204905092915050565b600061119b82610d48565b91506111a683610d48565b9250826111b6576111b5611101565b5b828206905092915050565b60006111cc82610d48565b91506111d783610d48565b9250827fffffffffffffffffffffffffffffffffffffffffffffffffffffffffffffffff0382111561120c5761120b611130565b5b828201905092915050565b600061122282610de2565b915061ffff820361123657611235611130565b5b600182019050919050565b7f4e487b7100000000000000000000000000000000000000000000000000000000600052603260045260246000fd5b600061127b82610de2565b915061128683610de2565b92508282101561129957611298611130565b5b828203905092915050565b60006112af82610d48565b91506112ba83610d48565b9250817fffffffffffffffffffffffffffffffffffffffffffffffffffffffffffffffff04831182151516156112f3576112f2611130565b5b828202905092915050565b600061130982610dab565b915061131483610dab565b92508282101561132757611326611130565b5b828203905092915050565b600061133d82610d48565b915061134883610d48565b92508282101561135b5761135a611130565b5b828203905092915050565b600061137182610de2565b915061137c83610de2565b92508261138c5761138b611101565b5b828206905092915050565b60006113a282610dab565b915060ff82036113b5576113b4611130565b5b60018201905091905056fea2646970667358221220aeaaec347fd7c38e4cd7f567ad16a941990ee853092caf991756454e864a550c64736f6c634300080f0033",
  "immutableReferences": {},
  "source": "// SPDX-License-Identifier: MIT\r\npragma solidity >=0.4.22 <0.9.0;\r\nlibrary DateTime {\r\n        /*\r\n         *  Date and Time utilities for ethereum contracts\r\n         *\r\n         */\r\n        struct _DateTime {\r\n                uint16 year;\r\n                uint8 month;\r\n                uint8 day;\r\n                uint8 hour;\r\n                uint8 minute;\r\n                uint8 second;\r\n                uint8 weekday;\r\n        }\r\n\r\n        uint constant DAY_IN_SECONDS = 86400;\r\n        uint constant YEAR_IN_SECONDS = 31536000;\r\n        uint constant LEAP_YEAR_IN_SECONDS = 31622400;\r\n\r\n        uint constant HOUR_IN_SECONDS = 3600;\r\n        uint constant MINUTE_IN_SECONDS = 60;\r\n\r\n        uint16 constant ORIGIN_YEAR = 1970;\r\n\r\n        function isLeapYear(uint16 year) public pure returns (bool) {\r\n                if (year % 4 != 0) {\r\n                        return false;\r\n                }\r\n                if (year % 100 != 0) {\r\n                        return true;\r\n                }\r\n                if (year % 400 != 0) {\r\n                        return false;\r\n                }\r\n                return true;\r\n        }\r\n\r\n        function leapYearsBefore(uint year) public pure returns (uint) {\r\n                year -= 1;\r\n                return year / 4 - year / 100 + year / 400;\r\n        }\r\n\r\n        function getDaysInMonth(uint8 month, uint16 year) public pure returns (uint8) {\r\n                if (month == 1 || month == 3 || month == 5 || month == 7 || month == 8 || month == 10 || month == 12) {\r\n                        return 31;\r\n                }\r\n                else if (month == 4 || month == 6 || month == 9 || month == 11) {\r\n                        return 30;\r\n                }\r\n                else if (isLeapYear(year)) {\r\n                        return 29;\r\n                }\r\n                else {\r\n                        return 28;\r\n                }\r\n        }\r\n\r\n        function parseTimestamp(uint timestamp) internal pure returns (_DateTime memory dt) {\r\n                uint secondsAccountedFor = 0;\r\n                uint buf;\r\n                uint8 i;\r\n\r\n                // Year\r\n                dt.year = getYear(timestamp);\r\n                buf = leapYearsBefore(dt.year) - leapYearsBefore(ORIGIN_YEAR);\r\n\r\n                secondsAccountedFor += LEAP_YEAR_IN_SECONDS * buf;\r\n                secondsAccountedFor += YEAR_IN_SECONDS * (dt.year - ORIGIN_YEAR - buf);\r\n\r\n                // Month\r\n                uint secondsInMonth;\r\n                for (i = 1; i <= 12; i++) {\r\n                        secondsInMonth = DAY_IN_SECONDS * getDaysInMonth(i, dt.year);\r\n                        if (secondsInMonth + secondsAccountedFor > timestamp) {\r\n                                dt.month = i;\r\n                                break;\r\n                        }\r\n                        secondsAccountedFor += secondsInMonth;\r\n                }\r\n\r\n                // Day\r\n                for (i = 1; i <= getDaysInMonth(dt.month, dt.year); i++) {\r\n                        if (DAY_IN_SECONDS + secondsAccountedFor > timestamp) {\r\n                                dt.day = i;\r\n                                break;\r\n                        }\r\n                        secondsAccountedFor += DAY_IN_SECONDS;\r\n                }\r\n\r\n                // Hour\r\n                dt.hour = getHour(timestamp);\r\n\r\n                // Minute\r\n                dt.minute = getMinute(timestamp);\r\n\r\n                // Second\r\n                dt.second = getSecond(timestamp);\r\n\r\n                // Day of week.\r\n                dt.weekday = getWeekday(timestamp);\r\n        }\r\n\r\n        function getYear(uint timestamp) public pure returns (uint16) {\r\n                uint secondsAccountedFor = 0;\r\n                uint16 year;\r\n                uint numLeapYears;\r\n\r\n                // Year\r\n                year = uint16(ORIGIN_YEAR + timestamp / YEAR_IN_SECONDS);\r\n                numLeapYears = leapYearsBefore(year) - leapYearsBefore(ORIGIN_YEAR);\r\n\r\n                secondsAccountedFor += LEAP_YEAR_IN_SECONDS * numLeapYears;\r\n                secondsAccountedFor += YEAR_IN_SECONDS * (year - ORIGIN_YEAR - numLeapYears);\r\n\r\n                while (secondsAccountedFor > timestamp) {\r\n                        if (isLeapYear(uint16(year - 1))) {\r\n                                secondsAccountedFor -= LEAP_YEAR_IN_SECONDS;\r\n                        }\r\n                        else {\r\n                                secondsAccountedFor -= YEAR_IN_SECONDS;\r\n                        }\r\n                        year -= 1;\r\n                }\r\n                return year;\r\n        }\r\n\r\n        function getMonth(uint timestamp) public pure returns (uint8) {\r\n                return parseTimestamp(timestamp).month;\r\n        }\r\n\r\n        function getDay(uint timestamp) public pure returns (uint8) {\r\n                return parseTimestamp(timestamp).day;\r\n        }\r\n\r\n        function getHour(uint timestamp) public pure returns (uint8) {\r\n                return uint8((timestamp / 60 / 60) % 24);\r\n        }\r\n\r\n        function getMinute(uint timestamp) public pure returns (uint8) {\r\n                return uint8((timestamp / 60) % 60);\r\n        }\r\n\r\n        function getSecond(uint timestamp) public pure returns (uint8) {\r\n                return uint8(timestamp % 60);\r\n        }\r\n\r\n        function getWeekday(uint timestamp) public pure returns (uint8) {\r\n                return uint8((timestamp / DAY_IN_SECONDS + 4) % 7);\r\n        }\r\n\r\n        function toTimestamp(uint16 year, uint8 month, uint8 day) public pure returns (uint timestamp) {\r\n                return toTimestamp(year, month, day, 0, 0, 0);\r\n        }\r\n\r\n        function toTimestamp(uint16 year, uint8 month, uint8 day, uint8 hour) public pure returns (uint timestamp) {\r\n                return toTimestamp(year, month, day, hour, 0, 0);\r\n        }\r\n\r\n        function toTimestamp(uint16 year, uint8 month, uint8 day, uint8 hour, uint8 minute) public pure returns (uint timestamp) {\r\n                return toTimestamp(year, month, day, hour, minute, 0);\r\n        }\r\n\r\n        function toTimestamp(uint16 year, uint8 month, uint8 day, uint8 hour, uint8 minute, uint8 second) public pure returns (uint timestamp) {\r\n                uint16 i;\r\n\r\n                // Year\r\n                for (i = ORIGIN_YEAR; i < year; i++) {\r\n                        if (isLeapYear(i)) {\r\n                                timestamp += LEAP_YEAR_IN_SECONDS;\r\n                        }\r\n                        else {\r\n                                timestamp += YEAR_IN_SECONDS;\r\n                        }\r\n                }\r\n\r\n                // Month\r\n                uint8[12] memory monthDayCounts;\r\n                monthDayCounts[0] = 31;\r\n                if (isLeapYear(year)) {\r\n                        monthDayCounts[1] = 29;\r\n                }\r\n                else {\r\n                        monthDayCounts[1] = 28;\r\n                }\r\n                monthDayCounts[2] = 31;\r\n                monthDayCounts[3] = 30;\r\n                monthDayCounts[4] = 31;\r\n                monthDayCounts[5] = 30;\r\n                monthDayCounts[6] = 31;\r\n                monthDayCounts[7] = 31;\r\n                monthDayCounts[8] = 30;\r\n                monthDayCounts[9] = 31;\r\n                monthDayCounts[10] = 30;\r\n                monthDayCounts[11] = 31;\r\n\r\n                for (i = 1; i < month; i++) {\r\n                        timestamp += DAY_IN_SECONDS * monthDayCounts[i - 1];\r\n                }\r\n\r\n                // Day\r\n                timestamp += DAY_IN_SECONDS * (day - 1);\r\n\r\n                // Hour\r\n                timestamp += HOUR_IN_SECONDS * (hour);\r\n\r\n                // Minute\r\n                timestamp += MINUTE_IN_SECONDS * (minute);\r\n\r\n                // Second\r\n                timestamp += second;\r\n\r\n                return timestamp;\r\n        }\r\n}",
  "sourcePath": "D:\\\\finish_web3\\contracts\\DateTime.sol",
  "compiler": {
    "name": "solc",
    "version": "0.8.15+commit.e14f2714.Emscripten.clang"
  },
  "schemaVersion": "3.4.8",
  "updatedAt": "2022-12-08T07:09:11.421Z",
  "networkType": "ethereum",
  "devdoc": {
    "kind": "dev",
    "methods": {},
    "version": 1
  },
  "userdoc": {
    "kind": "user",
    "methods": {},
    "version": 1
  }
}