{
  "contractName": "Points",
  "abi": [
    {
      "anonymous": false,
      "inputs": [
        {
          "indexed": false,
          "internalType": "uint256",
          "name": "contactId",
          "type": "uint256"
        },
        {
          "indexed": false,
          "internalType": "address",
          "name": "owner",
          "type": "address"
        },
        {
          "indexed": false,
          "internalType": "uint256",
          "name": "point",
          "type": "uint256"
        }
      ],
      "name": "NewPoint",
      "type": "event"
    },
    {
      "anonymous": false,
      "inputs": [
        {
          "indexed": true,
          "internalType": "address",
          "name": "previousOwner",
          "type": "address"
        },
        {
          "indexed": true,
          "internalType": "address",
          "name": "newOwner",
          "type": "address"
        }
      ],
      "name": "OwnershipTransferred",
      "type": "event"
    },
    {
      "inputs": [],
      "name": "Ownable",
      "outputs": [],
      "stateMutability": "nonpayable",
      "type": "function"
    },
    {
      "inputs": [
        {
          "internalType": "uint256",
          "name": "",
          "type": "uint256"
        }
      ],
      "name": "contactToOwner",
      "outputs": [
        {
          "internalType": "address",
          "name": "",
          "type": "address"
        }
      ],
      "stateMutability": "view",
      "type": "function",
      "constant": true
    },
    {
      "inputs": [],
      "name": "owner",
      "outputs": [
        {
          "internalType": "address",
          "name": "",
          "type": "address"
        }
      ],
      "stateMutability": "view",
      "type": "function",
      "constant": true
    },
    {
      "inputs": [
        {
          "internalType": "uint256",
          "name": "",
          "type": "uint256"
        }
      ],
      "name": "points",
      "outputs": [
        {
          "internalType": "string",
          "name": "CourseId",
          "type": "string"
        },
        {
          "internalType": "string",
          "name": "CourseName",
          "type": "string"
        },
        {
          "internalType": "string",
          "name": "CourseClass",
          "type": "string"
        },
        {
          "internalType": "string",
          "name": "CourseCategory",
          "type": "string"
        },
        {
          "internalType": "uint64",
          "name": "CoursePoint",
          "type": "uint64"
        },
        {
          "internalType": "string",
          "name": "CourseDate",
          "type": "string"
        },
        {
          "internalType": "uint256",
          "name": "getDate",
          "type": "uint256"
        },
        {
          "internalType": "address",
          "name": "owner",
          "type": "address"
        }
      ],
      "stateMutability": "view",
      "type": "function",
      "constant": true
    },
    {
      "inputs": [
        {
          "internalType": "address",
          "name": "newOwner",
          "type": "address"
        }
      ],
      "name": "transferOwnership",
      "outputs": [],
      "stateMutability": "nonpayable",
      "type": "function"
    },
    {
      "inputs": [],
      "name": "pointsArrayLength",
      "outputs": [
        {
          "internalType": "uint256",
          "name": "count",
          "type": "uint256"
        }
      ],
      "stateMutability": "view",
      "type": "function",
      "constant": true
    },
    {
      "inputs": [
        {
          "internalType": "uint256",
          "name": "_index",
          "type": "uint256"
        }
      ],
      "name": "getPoints",
      "outputs": [],
      "stateMutability": "nonpayable",
      "type": "function"
    },
    {
      "inputs": [
        {
          "internalType": "address",
          "name": "_owner",
          "type": "address"
        },
        {
          "internalType": "string",
          "name": "CourseId",
          "type": "string"
        },
        {
          "internalType": "string",
          "name": "CourseName",
          "type": "string"
        },
        {
          "internalType": "string",
          "name": "CourseClass",
          "type": "string"
        },
        {
          "internalType": "string",
          "name": "CourseCategory",
          "type": "string"
        },
        {
          "internalType": "uint64",
          "name": "CoursePoint",
          "type": "uint64"
        },
        {
          "internalType": "string",
          "name": "CourseDate",
          "type": "string"
        }
      ],
      "name": "createPoint",
      "outputs": [],
      "stateMutability": "nonpayable",
      "type": "function"
    },
    {
      "inputs": [
        {
          "internalType": "address",
          "name": "_owner",
          "type": "address"
        }
      ],
      "name": "getZombiesByOwner",
      "outputs": [
        {
          "internalType": "uint256[]",
          "name": "",
          "type": "uint256[]"
        }
      ],
      "stateMutability": "view",
      "type": "function",
      "constant": true
    }
  ],
  "bytecode": "0x608060405234801561001057600080fd5b50611599806100206000396000f3fe608060405234801561001057600080fd5b50600436106100935760003560e01c80638da5cb5b116100665780638da5cb5b1461010c5780639799b4e71461012a578063a967eee414610161578063ee51b1dc1461017d578063f2fde38b146101ad57610093565b8063067ad603146100985780634412e104146100b45780637a95b406146100e45780638afc360514610102575b600080fd5b6100b260048036038101906100ad9190610d19565b6101c9565b005b6100ce60048036038101906100c99190610e47565b610440565b6040516100db9190610f3c565b60405180910390f35b6100ec610592565b6040516100f99190610f6d565b60405180910390f35b61010a61059f565b005b6101146105e1565b6040516101219190610f97565b60405180910390f35b610144600480360381019061013f9190610fde565b610605565b6040516101589897969594939291906110a2565b60405180910390f35b61017b60048036038101906101769190610fde565b610939565b005b61019760048036038101906101929190610fde565b6109a0565b6040516101a49190610f97565b60405180910390f35b6101c760048036038101906101c29190610e47565b6109d3565b005b60036040518061010001604052808881526020018781526020018681526020018581526020018467ffffffffffffffff1681526020018381526020014281526020018973ffffffffffffffffffffffffffffffffffffffff1681525090806001815401808255809150506001900390600052602060002090600802016000909190919091506000820151816000019081610263919061134f565b506020820151816001019081610279919061134f565b50604082015181600201908161028f919061134f565b5060608201518160030190816102a5919061134f565b5060808201518160040160006101000a81548167ffffffffffffffff021916908367ffffffffffffffff16021790555060a08201518160050190816102ea919061134f565b5060c0820151816006015560e08201518160070160006101000a81548173ffffffffffffffffffffffffffffffffffffffff021916908373ffffffffffffffffffffffffffffffffffffffff1602179055505050600060016003805490506103529190611450565b9050336001600083815260200190815260200160002060006101000a81548173ffffffffffffffffffffffffffffffffffffffff021916908373ffffffffffffffffffffffffffffffffffffffff160217905550600260003373ffffffffffffffffffffffffffffffffffffffff1673ffffffffffffffffffffffffffffffffffffffff16815260200190815260200160002060008154809291906103f690611484565b91905055507f4cf19ade9d709b9be67c21d93a0be4f4d6e69a8a48068709b7cbf087ca087de981898560405161042e939291906114fd565b60405180910390a15050505050505050565b60606000600260008473ffffffffffffffffffffffffffffffffffffffff1673ffffffffffffffffffffffffffffffffffffffff1681526020019081526020016000205467ffffffffffffffff81111561049d5761049c610bae565b5b6040519080825280602002602001820160405280156104cb5781602001602082028036833780820191505090505b5090506000805b600380549050811015610587578473ffffffffffffffffffffffffffffffffffffffff166001600083815260200190815260200160002060009054906101000a900473ffffffffffffffffffffffffffffffffffffffff1673ffffffffffffffffffffffffffffffffffffffff1603610574578083838151811061055957610558611534565b5b602002602001018181525050818061057090611484565b9250505b808061057f90611484565b9150506104d2565b508192505050919050565b6000600380549050905090565b336000806101000a81548173ffffffffffffffffffffffffffffffffffffffff021916908373ffffffffffffffffffffffffffffffffffffffff160217905550565b60008054906101000a900473ffffffffffffffffffffffffffffffffffffffff1681565b6003818154811061061557600080fd5b906000526020600020906008020160009150905080600001805461063890611172565b80601f016020809104026020016040519081016040528092919081815260200182805461066490611172565b80156106b15780601f10610686576101008083540402835291602001916106b1565b820191906000526020600020905b81548152906001019060200180831161069457829003601f168201915b5050505050908060010180546106c690611172565b80601f01602080910402602001604051908101604052809291908181526020018280546106f290611172565b801561073f5780601f106107145761010080835404028352916020019161073f565b820191906000526020600020905b81548152906001019060200180831161072257829003601f168201915b50505050509080600201805461075490611172565b80601f016020809104026020016040519081016040528092919081815260200182805461078090611172565b80156107cd5780601f106107a2576101008083540402835291602001916107cd565b820191906000526020600020905b8154815290600101906020018083116107b057829003601f168201915b5050505050908060030180546107e290611172565b80601f016020809104026020016040519081016040528092919081815260200182805461080e90611172565b801561085b5780601f106108305761010080835404028352916020019161085b565b820191906000526020600020905b81548152906001019060200180831161083e57829003601f168201915b5050505050908060040160009054906101000a900467ffffffffffffffff169080600501805461088a90611172565b80601f01602080910402602001604051908101604052809291908181526020018280546108b690611172565b80156109035780601f106108d857610100808354040283529160200191610903565b820191906000526020600020905b8154815290600101906020018083116108e657829003601f168201915b5050505050908060060154908060070160009054906101000a900473ffffffffffffffffffffffffffffffffffffffff16905088565b336003828154811061094e5761094d611534565b5b906000526020600020906008020160070160006101000a81548173ffffffffffffffffffffffffffffffffffffffff021916908373ffffffffffffffffffffffffffffffffffffffff16021790555050565b60016020528060005260406000206000915054906101000a900473ffffffffffffffffffffffffffffffffffffffff1681565b60008054906101000a900473ffffffffffffffffffffffffffffffffffffffff1673ffffffffffffffffffffffffffffffffffffffff163373ffffffffffffffffffffffffffffffffffffffff1614610a2b57600080fd5b600073ffffffffffffffffffffffffffffffffffffffff168173ffffffffffffffffffffffffffffffffffffffff1603610a6457600080fd5b8073ffffffffffffffffffffffffffffffffffffffff1660008054906101000a900473ffffffffffffffffffffffffffffffffffffffff1673ffffffffffffffffffffffffffffffffffffffff167f8be0079c531659141344cd1fd0a4f28419497f9722a3daafe3b4186f6b6457e060405160405180910390a3806000806101000a81548173ffffffffffffffffffffffffffffffffffffffff021916908373ffffffffffffffffffffffffffffffffffffffff16021790555050565b6000604051905090565b600080fd5b600080fd5b600073ffffffffffffffffffffffffffffffffffffffff82169050919050565b6000610b6082610b35565b9050919050565b610b7081610b55565b8114610b7b57600080fd5b50565b600081359050610b8d81610b67565b92915050565b600080fd5b600080fd5b6000601f19601f8301169050919050565b7f4e487b7100000000000000000000000000000000000000000000000000000000600052604160045260246000fd5b610be682610b9d565b810181811067ffffffffffffffff82111715610c0557610c04610bae565b5b80604052505050565b6000610c18610b21565b9050610c248282610bdd565b919050565b600067ffffffffffffffff821115610c4457610c43610bae565b5b610c4d82610b9d565b9050602081019050919050565b82818337600083830152505050565b6000610c7c610c7784610c29565b610c0e565b905082815260208101848484011115610c9857610c97610b98565b5b610ca3848285610c5a565b509392505050565b600082601f830112610cc057610cbf610b93565b5b8135610cd0848260208601610c69565b91505092915050565b600067ffffffffffffffff82169050919050565b610cf681610cd9565b8114610d0157600080fd5b50565b600081359050610d1381610ced565b92915050565b600080600080600080600060e0888a031215610d3857610d37610b2b565b5b6000610d468a828b01610b7e565b975050602088013567ffffffffffffffff811115610d6757610d66610b30565b5b610d738a828b01610cab565b965050604088013567ffffffffffffffff811115610d9457610d93610b30565b5b610da08a828b01610cab565b955050606088013567ffffffffffffffff811115610dc157610dc0610b30565b5b610dcd8a828b01610cab565b945050608088013567ffffffffffffffff811115610dee57610ded610b30565b5b610dfa8a828b01610cab565b93505060a0610e0b8a828b01610d04565b92505060c088013567ffffffffffffffff811115610e2c57610e2b610b30565b5b610e388a828b01610cab565b91505092959891949750929550565b600060208284031215610e5d57610e5c610b2b565b5b6000610e6b84828501610b7e565b91505092915050565b600081519050919050565b600082825260208201905092915050565b6000819050602082019050919050565b6000819050919050565b610eb381610ea0565b82525050565b6000610ec58383610eaa565b60208301905092915050565b6000602082019050919050565b6000610ee982610e74565b610ef38185610e7f565b9350610efe83610e90565b8060005b83811015610f2f578151610f168882610eb9565b9750610f2183610ed1565b925050600181019050610f02565b5085935050505092915050565b60006020820190508181036000830152610f568184610ede565b905092915050565b610f6781610ea0565b82525050565b6000602082019050610f826000830184610f5e565b92915050565b610f9181610b55565b82525050565b6000602082019050610fac6000830184610f88565b92915050565b610fbb81610ea0565b8114610fc657600080fd5b50565b600081359050610fd881610fb2565b92915050565b600060208284031215610ff457610ff3610b2b565b5b600061100284828501610fc9565b91505092915050565b600081519050919050565b600082825260208201905092915050565b60005b8381101561104557808201518184015260208101905061102a565b83811115611054576000848401525b50505050565b60006110658261100b565b61106f8185611016565b935061107f818560208601611027565b61108881610b9d565b840191505092915050565b61109c81610cd9565b82525050565b60006101008201905081810360008301526110bd818b61105a565b905081810360208301526110d1818a61105a565b905081810360408301526110e5818961105a565b905081810360608301526110f9818861105a565b90506111086080830187611093565b81810360a083015261111a818661105a565b905061112960c0830185610f5e565b61113660e0830184610f88565b9998505050505050505050565b7f4e487b7100000000000000000000000000000000000000000000000000000000600052602260045260246000fd5b6000600282049050600182168061118a57607f821691505b60208210810361119d5761119c611143565b5b50919050565b60008190508160005260206000209050919050565b60006020601f8301049050919050565b600082821b905092915050565b6000600883026112057fffffffffffffffffffffffffffffffffffffffffffffffffffffffffffffffff826111c8565b61120f86836111c8565b95508019841693508086168417925050509392505050565b6000819050919050565b600061124c61124761124284610ea0565b611227565b610ea0565b9050919050565b6000819050919050565b61126683611231565b61127a61127282611253565b8484546111d5565b825550505050565b600090565b61128f611282565b61129a81848461125d565b505050565b5b818110156112be576112b3600082611287565b6001810190506112a0565b5050565b601f821115611303576112d4816111a3565b6112dd846111b8565b810160208510156112ec578190505b6113006112f8856111b8565b83018261129f565b50505b505050565b600082821c905092915050565b600061132660001984600802611308565b1980831691505092915050565b600061133f8383611315565b9150826002028217905092915050565b6113588261100b565b67ffffffffffffffff81111561137157611370610bae565b5b61137b8254611172565b6113868282856112c2565b600060209050601f8311600181146113b957600084156113a7578287015190505b6113b18582611333565b865550611419565b601f1984166113c7866111a3565b60005b828110156113ef578489015182556001820191506020850194506020810190506113ca565b8683101561140c5784890151611408601f891682611315565b8355505b6001600288020188555050505b505050505050565b7f4e487b7100000000000000000000000000000000000000000000000000000000600052601160045260246000fd5b600061145b82610ea0565b915061146683610ea0565b92508282101561147957611478611421565b5b828203905092915050565b600061148f82610ea0565b91507fffffffffffffffffffffffffffffffffffffffffffffffffffffffffffffffff82036114c1576114c0611421565b5b600182019050919050565b60006114e76114e26114dd84610cd9565b611227565b610ea0565b9050919050565b6114f7816114cc565b82525050565b60006060820190506115126000830186610f5e565b61151f6020830185610f88565b61152c60408301846114ee565b949350505050565b7f4e487b7100000000000000000000000000000000000000000000000000000000600052603260045260246000fdfea2646970667358221220de4033de92bb16ab53542cae8c54a011b2ab8927edbd73620f6ff756b1c64ea964736f6c634300080f0033",
  "immutableReferences": {},
  "source": "// SPDX-License-Identifier: MIT\r\npragma solidity >=0.4.22 <0.9.0;\r\n\r\nimport \"./ownable.sol\";\r\n\r\ncontract Points is ownable {\r\n  event NewPoint(uint256 contactId, address owner, uint256 point);\r\n  // address public owner = msg.sender;\r\n\r\n  struct Point {\r\n    string CourseId;//ID\r\n    string CourseName; //\r\n    string CourseClass; //\r\n    string CourseCategory;//\r\n    uint64 CoursePoint;//\r\n    string CourseDate;//\r\n    uint256 getDate;//(blocktimestamp)\r\n    address owner;//\r\n  }\r\n\r\n  mapping(uint256 => address) public contactToOwner;\r\n  mapping(address => uint256) ownerContactCount;\r\n\r\n  Point[] public points;\r\n\r\n  function pointsArrayLength() public view returns (uint count) {\r\n    return points.length;\r\n  }\r\n\r\n  function getPoints(uint256 _index) external  {\r\n    // require(_index < TOTAL_TICKETS && _index >= 0);\r\n    // require(tickets[_index].owner == address(0x0));\r\n    // require(msg.value >= tickets[_index].price);\r\n    points[_index].owner = msg.sender;\r\n  }\r\n\r\n  function createPoint(address _owner, string memory CourseId, string memory CourseName, string memory CourseClass,string memory CourseCategory, uint64 CoursePoint,string memory CourseDate) public {\r\n        points.push(Point(CourseId, CourseName, CourseClass, CourseCategory, CoursePoint, CourseDate, block.timestamp, _owner));\r\n        uint256 id = points.length - 1;\r\n        contactToOwner[id] = msg.sender;\r\n        ownerContactCount[msg.sender]++;\r\n        emit NewPoint(id, _owner, CoursePoint);\r\n    }\r\n  \r\n    function getZombiesByOwner(address _owner)\r\n        external\r\n        view\r\n        returns (uint256[] memory)\r\n    {\r\n        uint256[] memory result = new uint256[](ownerContactCount[_owner]);\r\n        uint256 counter = 0;\r\n        for (uint256 i = 0; i < points.length; i++) {\r\n            if (contactToOwner[i] == _owner) {\r\n                result[counter] = i;\r\n                counter++;\r\n            }\r\n        }\r\n        return result;\r\n    }\r\n  }",
  "sourcePath": "D:\\\\finish_web3\\contracts\\Points.sol",
  "compiler": {
    "name": "solc",
    "version": "0.8.15+commit.e14f2714.Emscripten.clang"
  },
  "schemaVersion": "3.4.8",
  "updatedAt": "2022-12-08T07:09:07.304Z",
  "networkType": "ethereum",
  "devdoc": {
    "kind": "dev",
    "methods": {
      "Ownable()": {
        "details": "The Ownable constructor sets the original `owner` of the contract to the sender account."
      },
      "transferOwnership(address)": {
        "details": "Allows the current owner to transfer control of the contract to a newOwner.",
        "params": {
          "newOwner": "The address to transfer ownership to."
        }
      }
    },
    "version": 1
  },
  "userdoc": {
    "kind": "user",
    "methods": {},
    "version": 1
  }
}