{
  "contractName": "Verify",
  "abi": [
    {
      "anonymous": false,
      "inputs": [
        {
          "indexed": true,
          "internalType": "address",
          "name": "previousOwner",
          "type": "address"
        },
        {
          "indexed": true,
          "internalType": "address",
          "name": "newOwner",
          "type": "address"
        }
      ],
      "name": "OwnershipTransferred",
      "type": "event"
    },
    {
      "inputs": [],
      "name": "Ownable",
      "outputs": [],
      "stateMutability": "nonpayable",
      "type": "function"
    },
    {
      "inputs": [
        {
          "internalType": "uint256",
          "name": "",
          "type": "uint256"
        }
      ],
      "name": "VcontactToOwner",
      "outputs": [
        {
          "internalType": "address",
          "name": "",
          "type": "address"
        }
      ],
      "stateMutability": "view",
      "type": "function",
      "constant": true
    },
    {
      "inputs": [
        {
          "internalType": "bytes32",
          "name": "",
          "type": "bytes32"
        }
      ],
      "name": "code",
      "outputs": [
        {
          "internalType": "address",
          "name": "account",
          "type": "address"
        },
        {
          "internalType": "uint256",
          "name": "createDate",
          "type": "uint256"
        },
        {
          "internalType": "bool",
          "name": "enable",
          "type": "bool"
        }
      ],
      "stateMutability": "view",
      "type": "function",
      "constant": true
    },
    {
      "inputs": [],
      "name": "owner",
      "outputs": [
        {
          "internalType": "address",
          "name": "",
          "type": "address"
        }
      ],
      "stateMutability": "view",
      "type": "function",
      "constant": true
    },
    {
      "inputs": [
        {
          "internalType": "address",
          "name": "newOwner",
          "type": "address"
        }
      ],
      "name": "transferOwnership",
      "outputs": [],
      "stateMutability": "nonpayable",
      "type": "function"
    },
    {
      "inputs": [
        {
          "internalType": "uint256",
          "name": "",
          "type": "uint256"
        }
      ],
      "name": "verifycards",
      "outputs": [
        {
          "internalType": "uint16",
          "name": "ExpiredYear",
          "type": "uint16"
        },
        {
          "internalType": "uint8",
          "name": "ExpiredMonth",
          "type": "uint8"
        },
        {
          "internalType": "uint8",
          "name": "ExpiredDay",
          "type": "uint8"
        },
        {
          "internalType": "string",
          "name": "IfOK",
          "type": "string"
        },
        {
          "internalType": "address",
          "name": "CardOwner",
          "type": "address"
        },
        {
          "internalType": "string",
          "name": "OnerCategory",
          "type": "string"
        },
        {
          "internalType": "string",
          "name": "OwnerName",
          "type": "string"
        }
      ],
      "stateMutability": "view",
      "type": "function",
      "constant": true
    },
    {
      "inputs": [],
      "name": "verifycardsArrayLength",
      "outputs": [
        {
          "internalType": "uint256",
          "name": "count",
          "type": "uint256"
        }
      ],
      "stateMutability": "view",
      "type": "function",
      "constant": true
    },
    {
      "inputs": [
        {
          "internalType": "address",
          "name": "account",
          "type": "address"
        }
      ],
      "name": "generateCode",
      "outputs": [
        {
          "internalType": "bytes32",
          "name": "",
          "type": "bytes32"
        }
      ],
      "stateMutability": "view",
      "type": "function",
      "constant": true
    },
    {
      "inputs": [
        {
          "internalType": "bytes32",
          "name": "hash",
          "type": "bytes32"
        },
        {
          "internalType": "address",
          "name": "account",
          "type": "address"
        }
      ],
      "name": "addCode",
      "outputs": [],
      "stateMutability": "nonpayable",
      "type": "function"
    },
    {
      "inputs": [
        {
          "internalType": "bytes32",
          "name": "hashh",
          "type": "bytes32"
        }
      ],
      "name": "verifyDate",
      "outputs": [],
      "stateMutability": "nonpayable",
      "type": "function"
    },
    {
      "inputs": [
        {
          "internalType": "uint16",
          "name": "nowTime",
          "type": "uint16"
        },
        {
          "internalType": "uint16",
          "name": "year",
          "type": "uint16"
        },
        {
          "internalType": "uint8",
          "name": "month",
          "type": "uint8"
        },
        {
          "internalType": "uint8",
          "name": "day",
          "type": "uint8"
        },
        {
          "internalType": "uint256",
          "name": "count",
          "type": "uint256"
        },
        {
          "internalType": "address",
          "name": "cardOwner",
          "type": "address"
        },
        {
          "internalType": "string",
          "name": "OwnerCategory",
          "type": "string"
        },
        {
          "internalType": "string",
          "name": "OwnerName",
          "type": "string"
        }
      ],
      "name": "VerifyGenerate",
      "outputs": [],
      "stateMutability": "nonpayable",
      "type": "function"
    }
  ],
  "bytecode": "0x608060405234801561001057600080fd5b50611ec4806100206000396000f3fe608060405234801561001057600080fd5b50600436106100a95760003560e01c80635ef8870a116100715780635ef8870a146101925780636b7cf9a4146101ae5780638afc3605146101ca5780638da5cb5b146101d4578063ca077016146101f2578063f2fde38b14610210576100a9565b80631299a2e2146100ae5780631d2c4bbb146100de57806325fa84fa1461010e57806328f17dd014610144578063519af69314610176575b600080fd5b6100c860048036038101906100c39190611351565b61022c565b6040516100d59190611397565b60405180910390f35b6100f860048036038101906100f391906113e8565b610263565b6040516101059190611424565b60405180910390f35b610128600480360381019061012391906113e8565b610296565b60405161013b9796959493929190611511565b60405180910390f35b61015e600480360381019061015991906115c1565b6104c8565b60405161016d93929190611618565b60405180910390f35b610190600480360381019061018b919061164f565b61051f565b005b6101ac60048036038101906101a7919061181c565b6105de565b005b6101c860048036038101906101c391906115c1565b6110c9565b005b6101d261111e565b005b6101dc611160565b6040516101e99190611424565b60405180910390f35b6101fa611184565b604051610207919061190a565b60405180910390f35b61022a60048036038101906102259190611351565b611191565b005b600080824260405160200161024292919061198e565b60405160208183030381529060405280519060200120905080915050919050565b60016020528060005260406000206000915054906101000a900473ffffffffffffffffffffffffffffffffffffffff1681565b600381815481106102a657600080fd5b90600052602060002090600502016000915090508060000160009054906101000a900461ffff16908060000160029054906101000a900460ff16908060000160039054906101000a900460ff1690806001018054610303906119e9565b80601f016020809104026020016040519081016040528092919081815260200182805461032f906119e9565b801561037c5780601f106103515761010080835404028352916020019161037c565b820191906000526020600020905b81548152906001019060200180831161035f57829003601f168201915b5050505050908060020160009054906101000a900473ffffffffffffffffffffffffffffffffffffffff16908060030180546103b7906119e9565b80601f01602080910402602001604051908101604052809291908181526020018280546103e3906119e9565b80156104305780601f1061040557610100808354040283529160200191610430565b820191906000526020600020905b81548152906001019060200180831161041357829003601f168201915b505050505090806004018054610445906119e9565b80601f0160208091040260200160405190810160405280929190818152602001828054610471906119e9565b80156104be5780601f10610493576101008083540402835291602001916104be565b820191906000526020600020905b8154815290600101906020018083116104a157829003601f168201915b5050505050905087565b60046020528060005260406000206000915090508060000160009054906101000a900473ffffffffffffffffffffffffffffffffffffffff16908060010154908060020160009054906101000a900460ff16905083565b60405180606001604052808273ffffffffffffffffffffffffffffffffffffffff168152602001428152602001600115158152506004600084815260200190815260200160002060008201518160000160006101000a81548173ffffffffffffffffffffffffffffffffffffffff021916908373ffffffffffffffffffffffffffffffffffffffff1602179055506020820151816001015560408201518160020160006101000a81548160ff0219169083151502179055509050505050565b6000805b600380549050811015610b4d578473ffffffffffffffffffffffffffffffffffffffff166003828154811061061a57610619611a1a565b5b906000526020600020906005020160020160009054906101000a900473ffffffffffffffffffffffffffffffffffffffff1673ffffffffffffffffffffffffffffffffffffffff1603610b3a578861ffff168a61ffff16101561080657826003828154811061068c5761068b611a1a565b5b906000526020600020906005020160040190816106a99190611bf5565b506040518060400160405280600681526020017fe59088e6b3950000000000000000000000000000000000000000000000000000815250600382815481106106f4576106f3611a1a565b5b906000526020600020906005020160010190816107119190611bf5565b50886003828154811061072757610726611a1a565b5b906000526020600020906005020160000160006101000a81548161ffff021916908361ffff160217905550876003828154811061076757610766611a1a565b5b906000526020600020906005020160000160026101000a81548160ff021916908360ff16021790555086600382815481106107a5576107a4611a1a565b5b906000526020600020906005020160000160036101000a81548160ff021916908360ff16021790555083600382815481106107e3576107e2611a1a565b5b906000526020600020906005020160030190816108009190611bf5565b50610b35565b600f86106109a957826003828154811061082357610822611a1a565b5b906000526020600020906005020160040190816108409190611bf5565b506040518060400160405280600681526020017fe59088e6b39500000000000000000000000000000000000000000000000000008152506003828154811061088b5761088a611a1a565b5b906000526020600020906005020160010190816108a89190611bf5565b506006896108b69190611cf6565b600382815481106108ca576108c9611a1a565b5b906000526020600020906005020160000160006101000a81548161ffff021916908361ffff160217905550876003828154811061090a57610909611a1a565b5b906000526020600020906005020160000160026101000a81548160ff021916908360ff160217905550866003828154811061094857610947611a1a565b5b906000526020600020906005020160000160036101000a81548160ff021916908360ff160217905550836003828154811061098657610985611a1a565b5b906000526020600020906005020160030190816109a39190611bf5565b50610b34565b82600382815481106109be576109bd611a1a565b5b906000526020600020906005020160040190816109db9190611bf5565b506040518060400160405280600981526020017fe5b7b2e9818ee69c9f000000000000000000000000000000000000000000000081525060038281548110610a2657610a25611a1a565b5b90600052602060002090600502016001019081610a439190611bf5565b508860038281548110610a5957610a58611a1a565b5b906000526020600020906005020160000160006101000a81548161ffff021916908361ffff1602179055508760038281548110610a9957610a98611a1a565b5b906000526020600020906005020160000160026101000a81548160ff021916908360ff1602179055508660038281548110610ad757610ad6611a1a565b5b906000526020600020906005020160000160036101000a81548160ff021916908360ff1602179055508360038281548110610b1557610b14611a1a565b5b90600052602060002090600502016003019081610b329190611bf5565b505b5b600191505b8080610b4590611d2e565b9150506105e2565b50600081036110be57600f85101580610be457508761ffff1673__DateTime______________________________6392d663138b6040518263ffffffff1660e01b8152600401610b9d9190611da7565b602060405180830381865af4158015610bba573d6000803e3d6000fd5b505050506040513d601f19601f82011682018060405250810190610bde9190611dd7565b61ffff16105b15610e5b5760036040518060e0016040528060068b610c039190611cf6565b61ffff1681526020018960ff1681526020018860ff1681526020016040518060400160405280600681526020017fe59088e6b395000000000000000000000000000000000000000000000000000081525081526020018673ffffffffffffffffffffffffffffffffffffffff16815260200185815260200184815250908060018154018082558091505060019003906000526020600020906005020160009091909190915060008201518160000160006101000a81548161ffff021916908361ffff16021790555060208201518160000160026101000a81548160ff021916908360ff16021790555060408201518160000160036101000a81548160ff021916908360ff1602179055506060820151816001019081610d229190611bf5565b5060808201518160020160006101000a81548173ffffffffffffffffffffffffffffffffffffffff021916908373ffffffffffffffffffffffffffffffffffffffff16021790555060a0820151816003019081610d7f9190611bf5565b5060c0820151816004019081610d959190611bf5565b50505060006001600380549050610dac9190611e04565b9050336001600083815260200190815260200160002060006101000a81548173ffffffffffffffffffffffffffffffffffffffff021916908373ffffffffffffffffffffffffffffffffffffffff160217905550600260003373ffffffffffffffffffffffffffffffffffffffff1673ffffffffffffffffffffffffffffffffffffffff1681526020019081526020016000206000815480929190610e5090611d2e565b9190505550506110bd565b60036040518060e001604052808a61ffff1681526020018960ff1681526020018860ff1681526020016040518060400160405280600981526020017fe5b7b2e9818ee69c9f000000000000000000000000000000000000000000000081525081526020018673ffffffffffffffffffffffffffffffffffffffff16815260200185815260200184815250908060018154018082558091505060019003906000526020600020906005020160009091909190915060008201518160000160006101000a81548161ffff021916908361ffff16021790555060208201518160000160026101000a81548160ff021916908360ff16021790555060408201518160000160036101000a81548160ff021916908360ff1602179055506060820151816001019081610f889190611bf5565b5060808201518160020160006101000a81548173ffffffffffffffffffffffffffffffffffffffff021916908373ffffffffffffffffffffffffffffffffffffffff16021790555060a0820151816003019081610fe59190611bf5565b5060c0820151816004019081610ffb9190611bf5565b505050600060016003805490506110129190611e04565b9050336001600083815260200190815260200160002060006101000a81548173ffffffffffffffffffffffffffffffffffffffff021916908373ffffffffffffffffffffffffffffffffffffffff160217905550600260003373ffffffffffffffffffffffffffffffffffffffff1673ffffffffffffffffffffffffffffffffffffffff16815260200190815260200160002060008154809291906110b690611d2e565b9190505550505b5b505050505050505050565b60b460046000838152602001908152602001600020600101546110ec9190611e38565b42106004600083815260200190815260200160002060020160006101000a81548160ff02191690831515021790555050565b336000806101000a81548173ffffffffffffffffffffffffffffffffffffffff021916908373ffffffffffffffffffffffffffffffffffffffff160217905550565b60008054906101000a900473ffffffffffffffffffffffffffffffffffffffff1681565b6000600380549050905090565b60008054906101000a900473ffffffffffffffffffffffffffffffffffffffff1673ffffffffffffffffffffffffffffffffffffffff163373ffffffffffffffffffffffffffffffffffffffff16146111e957600080fd5b600073ffffffffffffffffffffffffffffffffffffffff168173ffffffffffffffffffffffffffffffffffffffff160361122257600080fd5b8073ffffffffffffffffffffffffffffffffffffffff1660008054906101000a900473ffffffffffffffffffffffffffffffffffffffff1673ffffffffffffffffffffffffffffffffffffffff167f8be0079c531659141344cd1fd0a4f28419497f9722a3daafe3b4186f6b6457e060405160405180910390a3806000806101000a81548173ffffffffffffffffffffffffffffffffffffffff021916908373ffffffffffffffffffffffffffffffffffffffff16021790555050565b6000604051905090565b600080fd5b600080fd5b600073ffffffffffffffffffffffffffffffffffffffff82169050919050565b600061131e826112f3565b9050919050565b61132e81611313565b811461133957600080fd5b50565b60008135905061134b81611325565b92915050565b600060208284031215611367576113666112e9565b5b60006113758482850161133c565b91505092915050565b6000819050919050565b6113918161137e565b82525050565b60006020820190506113ac6000830184611388565b92915050565b6000819050919050565b6113c5816113b2565b81146113d057600080fd5b50565b6000813590506113e2816113bc565b92915050565b6000602082840312156113fe576113fd6112e9565b5b600061140c848285016113d3565b91505092915050565b61141e81611313565b82525050565b60006020820190506114396000830184611415565b92915050565b600061ffff82169050919050565b6114568161143f565b82525050565b600060ff82169050919050565b6114728161145c565b82525050565b600081519050919050565b600082825260208201905092915050565b60005b838110156114b2578082015181840152602081019050611497565b838111156114c1576000848401525b50505050565b6000601f19601f8301169050919050565b60006114e382611478565b6114ed8185611483565b93506114fd818560208601611494565b611506816114c7565b840191505092915050565b600060e082019050611526600083018a61144d565b6115336020830189611469565b6115406040830188611469565b818103606083015261155281876114d8565b90506115616080830186611415565b81810360a083015261157381856114d8565b905081810360c083015261158781846114d8565b905098975050505050505050565b61159e8161137e565b81146115a957600080fd5b50565b6000813590506115bb81611595565b92915050565b6000602082840312156115d7576115d66112e9565b5b60006115e5848285016115ac565b91505092915050565b6115f7816113b2565b82525050565b60008115159050919050565b611612816115fd565b82525050565b600060608201905061162d6000830186611415565b61163a60208301856115ee565b6116476040830184611609565b949350505050565b60008060408385031215611666576116656112e9565b5b6000611674858286016115ac565b92505060206116858582860161133c565b9150509250929050565b6116988161143f565b81146116a357600080fd5b50565b6000813590506116b58161168f565b92915050565b6116c48161145c565b81146116cf57600080fd5b50565b6000813590506116e1816116bb565b92915050565b600080fd5b600080fd5b7f4e487b7100000000000000000000000000000000000000000000000000000000600052604160045260246000fd5b611729826114c7565b810181811067ffffffffffffffff82111715611748576117476116f1565b5b80604052505050565b600061175b6112df565b90506117678282611720565b919050565b600067ffffffffffffffff821115611787576117866116f1565b5b611790826114c7565b9050602081019050919050565b82818337600083830152505050565b60006117bf6117ba8461176c565b611751565b9050828152602081018484840111156117db576117da6116ec565b5b6117e684828561179d565b509392505050565b600082601f830112611803576118026116e7565b5b81356118138482602086016117ac565b91505092915050565b600080600080600080600080610100898b03121561183d5761183c6112e9565b5b600061184b8b828c016116a6565b985050602061185c8b828c016116a6565b975050604061186d8b828c016116d2565b965050606061187e8b828c016116d2565b955050608061188f8b828c016113d3565b94505060a06118a08b828c0161133c565b93505060c089013567ffffffffffffffff8111156118c1576118c06112ee565b5b6118cd8b828c016117ee565b92505060e089013567ffffffffffffffff8111156118ee576118ed6112ee565b5b6118fa8b828c016117ee565b9150509295985092959890939650565b600060208201905061191f60008301846115ee565b92915050565b60008160601b9050919050565b600061193d82611925565b9050919050565b600061194f82611932565b9050919050565b61196761196282611313565b611944565b82525050565b6000819050919050565b611988611983826113b2565b61196d565b82525050565b600061199a8285611956565b6014820191506119aa8284611977565b6020820191508190509392505050565b7f4e487b7100000000000000000000000000000000000000000000000000000000600052602260045260246000fd5b60006002820490506001821680611a0157607f821691505b602082108103611a1457611a136119ba565b5b50919050565b7f4e487b7100000000000000000000000000000000000000000000000000000000600052603260045260246000fd5b60008190508160005260206000209050919050565b60006020601f8301049050919050565b600082821b905092915050565b600060088302611aab7fffffffffffffffffffffffffffffffffffffffffffffffffffffffffffffffff82611a6e565b611ab58683611a6e565b95508019841693508086168417925050509392505050565b6000819050919050565b6000611af2611aed611ae8846113b2565b611acd565b6113b2565b9050919050565b6000819050919050565b611b0c83611ad7565b611b20611b1882611af9565b848454611a7b565b825550505050565b600090565b611b35611b28565b611b40818484611b03565b505050565b5b81811015611b6457611b59600082611b2d565b600181019050611b46565b5050565b601f821115611ba957611b7a81611a49565b611b8384611a5e565b81016020851015611b92578190505b611ba6611b9e85611a5e565b830182611b45565b50505b505050565b600082821c905092915050565b6000611bcc60001984600802611bae565b1980831691505092915050565b6000611be58383611bbb565b9150826002028217905092915050565b611bfe82611478565b67ffffffffffffffff811115611c1757611c166116f1565b5b611c2182546119e9565b611c2c828285611b68565b600060209050601f831160018114611c5f5760008415611c4d578287015190505b611c578582611bd9565b865550611cbf565b601f198416611c6d86611a49565b60005b82811015611c9557848901518255600182019150602085019450602081019050611c70565b86831015611cb25784890151611cae601f891682611bbb565b8355505b6001600288020188555050505b505050505050565b7f4e487b7100000000000000000000000000000000000000000000000000000000600052601160045260246000fd5b6000611d018261143f565b9150611d0c8361143f565b92508261ffff03821115611d2357611d22611cc7565b5b828201905092915050565b6000611d39826113b2565b91507fffffffffffffffffffffffffffffffffffffffffffffffffffffffffffffffff8203611d6b57611d6a611cc7565b5b600182019050919050565b6000611d91611d8c611d878461143f565b611acd565b6113b2565b9050919050565b611da181611d76565b82525050565b6000602082019050611dbc6000830184611d98565b92915050565b600081519050611dd18161168f565b92915050565b600060208284031215611ded57611dec6112e9565b5b6000611dfb84828501611dc2565b91505092915050565b6000611e0f826113b2565b9150611e1a836113b2565b925082821015611e2d57611e2c611cc7565b5b828203905092915050565b6000611e43826113b2565b9150611e4e836113b2565b9250827fffffffffffffffffffffffffffffffffffffffffffffffffffffffffffffffff03821115611e8357611e82611cc7565b5b82820190509291505056fea264697066735822122068df08405f37e4ecfce56a4878b84a650bbaff78ea1b236b1bf12006acff1f4264736f6c634300080f0033",
  "immutableReferences": {},
  "source": "// SPDX-License-Identifier: MIT\r\npragma solidity >=0.4.22 <0.9.0;\r\n\r\nimport \"./ownable.sol\";\r\nimport \"./DateTime.sol\";\r\n\r\ncontract Verify is ownable {\r\n  //\r\n struct VerifyCard {\r\n    uint16 ExpiredYear; //\r\n    uint8 ExpiredMonth; //\r\n    uint8 ExpiredDay; //\r\n    string IfOK; //()\r\n    address CardOwner; //\r\n    string OnerCategory;//(...)\r\n    string OwnerName;//\r\n  }\r\n  mapping(uint256 => address) public VcontactToOwner;\r\n  mapping(address => uint256) VownerContactCount;\r\n  VerifyCard[] public verifycards;\r\n\r\n  //\r\n  function verifycardsArrayLength() public view returns (uint count) {\r\n    return verifycards.length;\r\n  }\r\n\r\n  //\r\n  \r\n  struct codeInfo{\r\n    address account;//\r\n    // uint256 cIndex;//\r\n    uint256 createDate;//\r\n    bool enable;//\r\n  }\r\n  mapping(bytes32 => codeInfo) public code;\r\n\r\n  //\r\n  function generateCode(address account) public view returns(bytes32){\r\n    bytes32 hash = keccak256(abi.encodePacked(account, block.timestamp));\r\n    return hash;\r\n  }\r\n\r\n  //\r\n  function addCode(\r\n    bytes32 hash,\r\n    address account\r\n  )public{\r\n    code[hash] = codeInfo({\r\n      account: account,\r\n      createDate: block.timestamp,\r\n      enable: true\r\n    });\r\n  }\r\n\r\n  //\r\n  function verifyDate(bytes32 hashh) public{\r\n    //\r\n    code[hashh].enable = block.timestamp < code[hashh].createDate + 3 minutes;\r\n  }\r\n\r\n  \r\n  // \r\n  function VerifyGenerate(uint16 nowTime, uint16 year, uint8 month, uint8 day, uint256 count, address cardOwner, string memory OwnerCategory, string memory OwnerName) public {\r\n    uint256 ifexist = 0;\r\n    for (uint256 i = 0; i < verifycards.length; i++) {\r\n        if(verifycards[i].CardOwner == cardOwner){\r\n            // if (count >= 15 || (DateTime.getYear(block.timestamp)<year)){\r\n            if (nowTime<year){\r\n                verifycards[i].OwnerName = OwnerName;\r\n                verifycards[i].IfOK = unicode\"\";\r\n                verifycards[i].ExpiredYear = year;\r\n                verifycards[i].ExpiredMonth = month;\r\n                verifycards[i].ExpiredDay = day;\r\n                verifycards[i].OnerCategory = OwnerCategory;\r\n            }\r\n            else if(count >= 15){\r\n                verifycards[i].OwnerName = OwnerName;\r\n                verifycards[i].IfOK = unicode\"\";\r\n                verifycards[i].ExpiredYear = year+6;\r\n                verifycards[i].ExpiredMonth = month;\r\n                verifycards[i].ExpiredDay = day;\r\n                verifycards[i].OnerCategory = OwnerCategory;\r\n            }\r\n            else{\r\n                verifycards[i].OwnerName = OwnerName;\r\n                verifycards[i].IfOK = unicode\"\";\r\n                verifycards[i].ExpiredYear = year;\r\n                verifycards[i].ExpiredMonth = month;\r\n                verifycards[i].ExpiredDay = day;\r\n                verifycards[i].OnerCategory = OwnerCategory;\r\n            }\r\n            ifexist = 1;\r\n        }\r\n    }\r\n    if(ifexist == 0)\r\n    {\r\n        if (count >= 15 || DateTime.getYear(nowTime)<year){\r\n          verifycards.push(VerifyCard((year+6), month, day, unicode\"\", cardOwner, OwnerCategory, OwnerName));\r\n          uint256 id = verifycards.length - 1;\r\n          VcontactToOwner[id] = msg.sender;\r\n          VownerContactCount[msg.sender]++;\r\n        }\r\n        else{\r\n          verifycards.push(VerifyCard(year, month, day, unicode\"\", cardOwner, OwnerCategory, OwnerName));\r\n          uint256 id = verifycards.length - 1;\r\n          VcontactToOwner[id] = msg.sender;\r\n          VownerContactCount[msg.sender]++;\r\n        }\r\n    }\r\n        \r\n    }\r\n  // \r\n\r\n}",
  "sourcePath": "D:\\\\finish_web3\\contracts\\Verify.sol",
  "compiler": {
    "name": "solc",
    "version": "0.8.15+commit.e14f2714.Emscripten.clang"
  },
  "schemaVersion": "3.4.8",
  "updatedAt": "2022-12-08T07:09:09.295Z",
  "networkType": "ethereum",
  "devdoc": {
    "kind": "dev",
    "methods": {
      "Ownable()": {
        "details": "The Ownable constructor sets the original `owner` of the contract to the sender account."
      },
      "transferOwnership(address)": {
        "details": "Allows the current owner to transfer control of the contract to a newOwner.",
        "params": {
          "newOwner": "The address to transfer ownership to."
        }
      }
    },
    "version": 1
  },
  "userdoc": {
    "kind": "user",
    "methods": {},
    "version": 1
  }
}